S00B000070776D2E73726563C5
S113000045C0000053C0000051C000004FC00000B4
S11300104DC000004BC0000049C0000047C00000B4
S113002045C0000043C0000041C000003FC00000C4
S11300303DC000003BC0000039C0000038C00000D3
S113004041C0000033C0000031C000002FC00000D8
S11300502DC000002BC0000029C0000027C00000F4
S113006025C0000023C0000021C000001FC0000004
S11300701DC000001BC0000019C0000017C0000014
S113008015C0000013C0000011C0000011241FBEE1
S1130090CFEFD0E1DEBFCDBF21E0A0E0B1E001C0F1
S11300A01D92A030B207E1F727D028C0A9CF1F9234
S11300B00F920FB60F92112497980F900FBE0F90C6
S11300C01F9018951F920F920FB60F921124979AB2
S11300D00F900FBE0F901F901895A79A82B18C6055
S11300E082B98F9A83B7816083BF87B7836087BFE4
S11300F08AEF81BF78940895F0DFFFCFF894FFCFA3
S9030000FC
